:020000040800F2
:10000000000001208DF80108DDF80108DDF8010885
:10001000DDF80108DDF80108DDF801080000000046
:10002000000000000000000000000000DDF80108F2
:10003000DDF8010800000000DDF801086910000883
:10004000DDF80108DDF80108DDF80108DDF8010838
:10005000DDF80108DDF80108DDF80108DDF8010828
:10006000DDF80108DDF80108DDF80108DDF8010818
:10007000DDF80108DDF80108DDF801087910000855
:10008000DDF80108DDF80108DDF80108DDF80108F8
:10009000DDF80108DDF80108DDF80108DDF80108E8
:1000A000DDF80108DDF80108DDF80108DDF80108D8
:1000B000DDF80108DDF80108DDF80108DDF80108C8
:1000C000DDF80108DDF80108DDF80108DDF80108B8
:1000D000DDF80108DDF80108DDF80108DDF80108A8
:1000E000DDF80108DDF80108DDF80108DDF8010898
:1000F000DDF80108DDF80108DDF80108DDF8010888
:10010000DDF801080000000000000000DDF8010833
:10011000DDF80108DDF80108DDF80108DDF8010867
:10012000DDF801088D100008DDF80108DDF8010890
:10013000DDF80108DDF80108000000000000000003
:10014000DDF80108DDF80108DDF801080000000015
:10015000000000000000000000000000000000009F
:10016000DDF80108DDF80108DDF80108DDF8010817
:10017000DDF80108DDF80108DDF80108DDF8010807
:10018000DDF80108DDF801080000000000000000B3
:04019000DDF801088D
:1001A00010B5054C237833B9044B13B10448AFF3B1
:1001B00000800123237010BD80000020000000009B
:1001C000649E020808B5034B1BB103490348AFF313
:1001D000008008BD0000000084000020649E02082A
:1001E00080B58AB000AF01F011F800F099F800F086
:1001F000A7FB00F073FB00F0AFFA00F0C3F900F0CA
:10020000EFF900F01BFA00F047FA00F0F3FA00F003
:10021000EBF800F063FA00F08FF900F02BFB00F030
:1002200035F9344B1B681B687B620C233B6204234B
:10023000FB617A6A3B6A1A40FB699A420CD0796A80
:100240002D4829F0CFF93B6ADB437A6A13407B6281
:100250007A6AFB6913437B62796A284829F0C2F9FC
:10026000244B1B687A6A1A60224B1B68214A126869
:10027000126842F001021A601E4B1B681B68194687
:100280001F4829F0AFF91F4B1B681E4A12681268FD
:1002900042F001021A601B4B1B681B6819461A4882
:1002A00029F0A0F9194B1B68184A1268126842F02D
:1002B00001021A60154B1B681B681946144829F087
:1002C00091F9144B1B68134A1268126842F001023C
:1002D0001A60104B1B681B6819460F4829F082F9F9
:1002E0000E4A0E4B9B6843F00103936022F0BAFD67
:1002F000FCE700BF68BA0020809E0208B09E02089A
:10030000E09E0208A8B70020F89E020874B70020FB
:10031000109F020834BA0020289F0208002004E041
:1003200080B5A6B000AF02233B670123FB67102313
:10033000C7F880300223C7F888304FF40043C7F86D
:100340008C304FF4E013C7F890300023C7F8943096
:1003500007F1700318460CF01BF90346002B01D07F
:1003600000F0A4FB0F23FB6502233B6600237B66A2
:100370004FF48063BB660023FB6607F15C03022138
:1003800018460DF035FB0346002B01D000F08EFB24
:10039000134B7B600023FB600023FB6300233B6463
:1003A0003B1D18460EF03AF80346002B01D000F032
:1003B0007DFB0DF0F5FE02460A4BA3FB02239B09D1
:1003C000184606F059FD042006F028FF00220021FF
:1003D0004FF0FF3006F0EEFC00BF9837BD4680BD01
:1003E00001003000D34D621080B586B000AF254BC0
:1003F000254A1A60234B4FF400325A60214B0022E9
:100400009A60204B00221A611E4B0022DA611D4BBC
:1004100000225A621B4B00221A631A4B0022DA6038
:10042000184B01221A62174B00225A63154B042203
:100430005A61144B00229A61124B00229A631148B0
:1004400001F036F90346002B01D000F02FFB082302
:100450003B6001237B600023FB600023BB60002323
:100460003B6100237B613B461946064804F0B6FA1F
:100470000346002B01D000F019FB00BF1837BD4622
:1004800080BD00BFC4B800200001005080B586B018
:1004900000AF274B274A1A60254B4FF400325A60B1
:1004A000234B00229A60224B00221A61204B00222B
:1004B000DA611F4B00225A621D4B4FF480621A63AF
:1004C0001B4B4FF48072DA62194B0022DA60184B32
:1004D00001221A62164B00225A63154B0C225A61F4
:1004E000134B00229A61124B00229A63104801F0CC
:1004F000DFF80346002B01D000F0D8FA05233B605B
:1005000001237B600023FB600023BB6000233B6171
:1005100000237B613B461946054804F05FFA034619
:10052000002B01D000F0C2FA00BF1837BD4680BDD5
:1005300018B900200005005080B584B000AF0F4B03
:100540000F4A1A600D4806F09FFE0346002B01D0AB
:1005500000F0ACFA00237B600023BB603B1D00224F
:100560001946064807F07CFA0346002B01D000F03C
:100570009DFA00BF1037BD4680BD00BF6CB900209A
:100580000074004080B500AF134B144A1A60124B40
:1005900040225A60104B0C22DA600F4B00221A6185
:1005A0000D4B4FF44032DA610B4B00221A620A4BBA
:1005B00000225A6208480BF097FA0346002B01D03C
:1005C00000F074FA04480BF023FD0346002B01D021
:1005D00000F06CFA00BF80BDA8B7002038000140D1
:1005E00080B500AF134B144A1A60124B40225A6078
:1005F000104B0C22DA600F4B00221A610D4B4FF4A6
:100600004032DA610B4B00221A620A4B00225A6216
:1006100008480BF069FA0346002B01D000F046FAB7
:1006200004480BF0F5FC0346002B01D000F03EFA25
:1006300000BF80BD74B700203C00014080B500AF12
:10064000134B144A1A60124B40225A60104B0C2272
:10065000DA600F4B00221A610D4B4FF44032DA6121
:100660000B4B00221A620A4B00225A6208480BF018
:100670003BFA0346002B01D000F018FA04480BF0B7
:10068000C7FC0346002B01D000F010FA00BF80BD6C
:1006900034BA00204000014080B500AF0D4B0E4A37
:1006A0001A600C4B00225A600A4B0422DA60094B94
:1006B00000229A60074B00221A61064B00225A6200
:1006C00004480BF011FA0346002B01D000F0EEF9BC
:1006D00000BF80BD68BA00204400014080B588B0EA
:1006E00000AF1C4B4FF080421A601A4B00225A6038
:1006F000184B00229A60174B0022DA60154B00223B
:100700001A6114480EF066FF0346002B01D000F07A
:10071000CDF94FF480533B6107F1100319460D48A2
:1007200015F0BEFC0346002B01D000F0BFF90023FA
:100730007B600023FB603B1D194606481AF038FB1E
:100740000346002B01D000F0B1F900BF2037BD46B1
:1007500080BD00BFBCB9002080B58CB000AF234B7A
:10076000234A1A60214B00225A60204B00229A60D3
:100770001E4B4FF40052DA601C4B00221A611B48DA
:100780000EF028FF0346002B01D000F08FF94FF444
:1007900080533B6207F120031946144815F080FC92
:1007A0000346002B01D000F081F90023FB600023F9
:1007B0003B6107F10C0319460C4816F091F803460B
:1007C000002B01D000F072F920233B600023BB60B6
:1007D0003B46194605481AF0EBFA0346002B01D0B8
:1007E00000F064F900BF3037BD4680BDF8B9002085
:1007F0000004004080B588B000AF1C4B1C4A1A6052
:100800001A4B00225A60194B00229A60174B4FF482
:100810002272DA60154B00221A6114480EF0DAFEDB
:100820000346002B01D000F041F94FF480533B61A7
:1008300007F1100319460D4815F032FC0346002B52
:1008400001D000F033F900237B600023FB603B1DE7
:10085000194606481AF0ACFA0346002B01D000F006
:1008600025F900BF2037BD4680BD00BF80B90020FC
:100870000008004080B500AF154B164A1A60144BB3
:10088000154A5A60124B00229A60114B0022DA601E
:100890000F4B00221A610E4B0C225A610C4B0022A6
:1008A0009A610B4B0022DA61094B00221A62084B55
:1008B00020225A62064B4FF40052DA6304481AF0C1
:1008C00033FF0346002B01D000F0F0F800BF80BDDD
:1008D00054B800200038014040420F0080B582B07B
:1008E00000AF164A154B5B6943F001035361134B8C
:1008F0005B6903F001037B607B68104A0F4B5B6907
:1009000043F0020353610D4B5B6903F002033B604C
:100910003B68002200210F2006F04CFA0F2006F061
:1009200075FA00220021392006F044FA392006F039
:100930006DFA00BF0837BD4680BD00BF0010024001
:1009400080B58AB000AF554A544B5B6943F400232D
:100950005361524B5B6903F400233B613B694F4A8F
:100960004E4B5B6943F4800353614C4B5B6903F46A
:100970008003FB60FB68494A484B5B6943F40033E2
:100980005361464B5B6903F40033BB60BB68434A69
:10099000424B5B6943F480235361404B5B6903F432
:1009A00080237B607B683D4A3C4B5B6943F480134A
:1009B00053613A4B5B6903F480133B603B6843F23D
:1009C000FB537B610323BB610023FB6107F114032D
:1009D000194633480AF00EFC49F601137B610323E4
:1009E000BB610023FB6107F1140319464FF09040EF
:1009F0000AF000FC46F270337B610323BB610023E5
:100A0000FB6107F11403194626480AF0F3FB4FF483
:100A100000737B611123BB610023FB6100233B62F8
:100A200007F1140319461E480AF0E4FB4FF4006373
:100A30007B610123BB610023FB6100233B6207F163
:100A40001403194616480AF0D5FB04237B610323DF
:100A5000BB610023FB6107F11403194612480AF039
:100A6000C9FB80237B610123BB610023FB61002361
:100A70003B6207F1140319460A480AF0BBFB002247
:100A80004FF4206106480AF061FF002280210548EA
:100A90000AF05CFF00BF2837BD4680BD0010024051
:100AA0000008004800040048000C004880B500AF72
:100AB000014828F097FDFBE7409F020880B483B00F
:100AC00000AF7860396000BF0C37BD465DF8047B2D
:100AD000704700BF80B582B000AF1E4A1D4B9B69B6
:100AE00043F0010393611B4B9B6903F001037B609F
:100AF0007B68072006F03EF9002200216FF00B0012
:100B000006F058F9002200216FF00A0006F052F9B1
:100B1000002200216FF0090006F04CF900220021AC
:100B20006FF0040006F046F9002200216FF0030088
:100B300006F040F9002200216FF0010006F03AF9BA
:100B4000002200214FF0FF3006F034F900BF0837D3
:100B5000BD4680BD0010024080B58AB000AF78600D
:100B60007B681B68334A934218D1334A324B5B6926
:100B700043F080535361304B5B6903F080533B611A
:100B80003B6904237B610323BB610023FB6107F105
:100B90001403194629480AF02DFB46E07B681B68C0
:100BA000274A934241D1244A234B5B6943F00053C7
:100BB0005361214B5B6903F00053FB60FB684FF40A
:100BC00000437B610323BB610023FB6107F1140336
:100BD00019461C480AF00EFB1B4B1C4A1A601A4BA4
:100BE00000225A60184B00229A60174B8022DA606C
:100BF000154B4FF480721A61134B4FF480625A61A7
:100C0000114B00229A61104B4FF40052DA610E48EA
:100C100007F090F90346002B01D0FFF747FF7B68F0
:100C2000094ADA63084A7B68536200BF2837BD4629
:100C300080BD00BF000100500010024000080048C5
:100C4000000500500004004818B800201C040240B1
:100C500080B582B000AF78607B681B68134A93420E
:100C60000AD1134A124B5B6923F08053536104216C
:100C700010480AF02BFD14E07B681B680E4A934273
:100C80000FD10B4A0A4B5B6923F0005353614FF4B9
:100C900000410A480AF01AFD7B68DB6B184607F032
:100CA0005DFA00BF0837BD4680BD00BF000100509F
:100CB00000100240000800480005005000040048F1
:100CC00080B588B000AF78607B681B680F4A93429C
:100CD00018D10F4A0E4BDB6943F00053D3610C4B24
:100CE000DB6903F00053BB60BB681023FB60032388
:100CF0003B6100237B6107F10C0319464FF09040E4
:100D00000AF078FA00BF2037BD4680BD007400406D
:100D10000010024080B582B000AF78607B681B682D
:100D2000084A93420AD1084A074BDB6923F0005373
:100D3000D36110214FF090400AF0C8FC00BF083783
:100D4000BD4680BD007400400010024080B588B0F0
:100D500000AF78607B681B68254A93420DD10E2353
:100D6000FB6003233B6100237B6107F10C03194601
:100D70004FF090400AF03EFA36E07B681B681D4A4F
:100D800093420DD1E023FB6003233B6100237B6191
:100D900007F10C0319464FF090400AF02BFA23E0BC
:100DA0007B681B68144A93420CD10723FB60032322
:100DB0003B6100237B6107F10C0319460F480AF0E1
:100DC00019FA11E07B681B680D4A93420CD14FF46D
:100DD000E053FB6003233B6100237B6107F10C03BD
:100DE000194606480AF006FA00BF2037BD4680BD06
:100DF000380001403C000140400001400004004830
:100E00004400014080B582B000AF78607B681B6809
:100E1000154A934205D10E214FF090400AF056FC3E
:100E20001EE07B681B68114A934205D1E0214FF018
:100E300090400AF04BFC13E07B681B680C4A93421D
:100E400004D107210B480AF041FC09E07B681B68CC
:100E5000094A934204D14FF4E05106480AF036FCA7
:100E600000BF0837BD4680BD380001403C0001404E
:100E700040000140000400484400014080B487B0B5
:100E800000AF78607B681B68B3F1804F0CD11B4AC0
:100E90001A4BDB6943F00103D361184BDB6903F0A4
:100EA00001037B617B6922E07B681B68144A9342E3
:100EB0000CD1124A114BDB6943F00203D3610F4B93
:100EC000DB6903F002033B613B6910E07B681B6850
:100ED0000C4A93420BD1094A084BDB6943F00403E7
:100EE000D361064BDB6903F00403FB60FB6800BFC2
:100EF0001C37BD465DF8047B704700BF0010024000
:100F0000000400400008004080B483B000AF786067
:100F10007B681B68B3F1804F06D1124A114BDB6925
:100F200023F00103D36116E07B681B680E4A9342ED
:100F300006D10C4A0B4BDB6923F00203D3610AE0B4
:100F40007B681B68094A934205D1064A054BDB6959
:100F500023F00403D36100BF0C37BD465DF8047B6A
:100F6000704700BF0010024000040040000800402D
:100F700080B588B000AF78607B681B68254A9342D3
:100F800043D1254A244B9B6943F480439361224B10
:100F90009B6903F48043BB60BB684FF4C063FB6094
:100FA00002233B6101237B610323BB610723FB61B8
:100FB00007F10C0319464FF090400AF01BF9174B4C
:100FC000174A1A60154B00225A60144B00229A608F
:100FD000124B8022DA60114B00221A610F4B002263
:100FE0005A610E4B20229A610C4B0022DA610B48A9
:100FF00006F0A0FF0346002B01D0FFF757FD7B68EA
:10100000064A5A66054A7B68536200BF2037BD46D0
:1010100080BD00BF0038014000100240DCB7002056
:101020005800024080B582B000AF78607B681B68D2
:101030000B4A934210D10B4A0A4B9B6923F480431D
:1010400093614FF4C0614FF090400AF03FFB7B6822
:101050005B6E184607F082F800BF0837BD4680BDBA
:10106000003801400010024080B500AF00F02EF9BA
:1010700006F0FCF800BF80BD80B500AF024808F064
:101080006BFA00BF80BD00BFDCB7002080B500AFA9
:10109000024808F061FA00BF80BD00BF18B8002008
:1010A00080B400AF1F4A1F4BD3F8883043F470035D
:1010B000C2F888301C4A1C4B1B6843F001031360C4
:1010C0001949194B5A68194B13404B60164A164B75
:1010D0001B6823F0847323F480331360124A124B8D
:1010E0001B6823F4802313600F4A0F4B5B6823F4C3
:1010F000FE0353600C4A0C4BDB6A23F00F03D362F0
:101100000949094B1A6B0A4B13400B63064B00222B
:101110009A60044B4FF000629A6000BFBD465DF8D4
:10112000047B704700ED00E0001002400CC07FF827
:10113000CCFC00FF80B485B000AF0023FB6000232F
:10114000BB6000237B6000233B602C4B5B6803F09B
:101150000C03FB60FB68042B07D0082B09D0002B85
:1011600033D1274B274A1A6033E0254B254A1A60B2
:101170002FE0224B5B6803F47013BB601F4B5B686E
:1011800003F4C0337B60BB689B0C0233BB601B4B1A
:10119000DB6A03F00F0301333B607B68B3F5803FEC
:1011A00009D1184A3B68B2FBF3F3BA6802FB03F3B8
:1011B000134A13600DE0134A3B68B2FBF3F3BA68BD
:1011C00002FB03F30E4A136003E00D4B0D4A1A6055
:1011D00000BF0A4B5B6803F0F0031B090A4AD35CAB
:1011E000FB60074B1A68FB6822FA03F3044A13609A
:1011F00000BF1437BD465DF8047B70470010024005
:101200000400002000127A00449F020880B500AF5D
:10121000084A084B1B6843F010031360032005F0D5
:10122000A9FD002000F036F8FFF754FC0023184613
:1012300080BD00BF0020024080B500AF0C4B4FF0D6
:10124000FF321A610A4B00221A61094B4FF0FF323C
:10125000DA60074B0022DA60054B4FF0FF329A62EA
:10126000034B00229A6200F00DF80023184680BD5F
:101270000010024080B400AF00BFBD465DF8047BA3
:10128000704700BF80B400AF00BFBD465DF8047B6F
:10129000704700BF80B582B000AF7860094B1B6813
:1012A000094AA2FB03239B09184605F0E5FD00222D
:1012B00079684FF0FF3005F07DFD002318460837B0
:1012C000BD4680BD04000020D34D621080B400AF45
:1012D000044B1B680133034A136000BFBD465DF831
:1012E000047B70479CBA002080B400AF034B1B689E
:1012F0001846BD465DF8047B704700BF9CBA0020CD
:1013000080B584B000AF7860FFF7EEFFF86000BFF3
:10131000FFF7EAFF0246FB68D21A7B689A42F7D3CE
:1013200000BF1037BD4680BD80B400AF054A054BF5
:101330001B6823F00203136000BFBD465DF8047B09
:10134000704700BF10E000E080B400AF054A054BD5
:101350001B6843F00203136000BFBD465DF8047BC9
:10136000704700BF10E000E080B400AF024B1846A9
:10137000BD465DF8047B70470001020180B400AFF8
:10138000034B1B681B0C1846BD465DF8047B704779
:10139000002004E080B400AF044B1B68C3F30B03D0
:1013A0001846BD465DF8047B704700BF002004E08E
:1013B00080B400AF054A054B5B6843F001035360FE
:1013C00000BFBD465DF8047B704700BF002004E00D
:1013D00080B400AF054A054B5B6823F001035360FE
:1013E00000BFBD465DF8047B704700BF002004E0ED
:1013F00080B400AF054A054B5B6843F002035360BD
:1014000000BFBD465DF8047B704700BF002004E0CC
:1014100080B400AF054A054B5B6823F002035360BC
:1014200000BFBD465DF8047B704700BF002004E0AC
:1014300080B400AF054A054B5B6843F0040353607A
:1014400000BFBD465DF8047B704700BF002004E08C
:1014500080B400AF054A054B5B6823F0040353607A
:1014600000BFBD465DF8047B704700BF002004E06C
:1014700080B483B000AF7860012318460C37BD46B6
:101480005DF8047B704700BF80B483B000AF786024
:10149000012318460C37BD465DF8047B704700BF3A
:1014A00080B483B000AF786000BF0C37BD465DF8F4
:1014B000047B704780B483B000AF786000BF0C3706
:1014C000BD465DF8047B704780B483B000AF7860A0
:1014D000012318460C37BD465DF8047B704700BFFA
:1014E00080B483B000AF7860012318460C37BD4646
:1014F0005DF8047B704700BF80B483B000AF7860B4
:101500003960012318460C37BD465DF8047B7047EF
:1015100080B485B000AFF860B9607A6001231846E6
:101520001437BD465DF8047B704700BF80B483B0BC
:1015300000AF7860012318460C37BD465DF8047B88
:10154000704700BF80B483B000AF786001231846B5
:101550000C37BD465DF8047B704700BF80B485B092
:1015600000AFF860B9607A60012318461437BD46B1
:101570005DF8047B704700BF80B483B000AF786033
:10158000012318460C37BD465DF8047B704700BF49
:1015900080B483B000AF78607B681B681B6C184612
:1015A0000C37BD465DF8047B704700BF80B483B044
:1015B00000AF786000BF0C37BD465DF8047B704714
:1015C00080B483B000AF786000BF0C37BD465DF8D3
:1015D000047B704780B483B000AF786000BF0C37E5
:1015E000BD465DF8047B704780B483B000AF78607F
:1015F00000BF0C37BD465DF8047B704780B483B0F4
:1016000000AF786000BF0C37BD465DF8047B7047C3
:1016100080B483B000AF78603960012318460C377E
:10162000BD465DF8047B704780B483B000AF78603E
:101630003960012318460C37BD465DF8047B7047BE
:1016400080B582B000AF78607B681B68B3F1A04FB3
:1016500013D07B681B680C4A93420ED07B681B68D2
:101660000A4A934209D07B681B68094A934204D016
:1016700040F2A2310748FFF721FA7B685B6C1846FD
:101680000837BD4680BD00BF000100500004005077
:10169000000500505C9F020880B483B000AF786002
:1016A0007B689B6C18460C37BD465DF8047B704721
:1016B00080B59CB000AF7860002387F86F300023BE
:1016C000BB660023FB607B68002B01D1012366E32E
:1016D0007B681B68B3F1A04F13D07B681B689D4AE1
:1016E00093420ED07B681B689B4A934209D07B686B
:1016F0001B689A4A934204D040F20B119848FFF7B6
:10170000DDF97B685B68002B13D07B685B68B3F501
:10171000803F0ED07B685B68B3F5003F09D07B68E3
:101720005B68B3F5403F04D04FF486718C48FFF7F7
:10173000C5F97B689B68002B10D07B689B68082BE1
:101740000CD07B689B68102B08D07B689B68182B9B
:1017500004D040F20D118248FFF7B0F97B68DB68D6
:10176000002B08D07B68DB68202B04D04FF48771F6
:101770007B48FFF7A3F97B681B69002B08D07B68C7
:101780001B69012B04D040F20F117548FFF796F941
:101790007B68DB69002B08D07B68DB69012B04D0F8
:1017A0004FF488716E48FFF789F97B681B6B002B3B
:1017B00013D07B681B6BB3F5806F0ED07B681B6BFF
:1017C000B3F5006F09D07B681B6BB3F5406F04D095
:1017D00040F211116248FFF771F97B68DB6A002B58
:1017E00000F08C807B68DB6A402B00F087807B6890
:1017F000DB6AC02B00F082807B68DB6AB3F5707F08
:101800007CD07B68DB6AB3F5A07F77D07B68DB6A2E
:10181000B3F5507F72D07B68DB6AB3F5C07F6DD0C3
:101820007B68DB6AB3F5707F68D07B68DB6A402B2E
:1018300064D07B68DB6A002B60D07B68DB6AB3F521
:10184000C07F5BD07B68DB6AB3F5507F56D07B6886
:10185000DB6AC02B52D07B68DB6AB3F5A07F4DD02A
:101860007B68DB6A802B49D07B68DB6AB3F5107F2D
:1018700044D07B68DB6AB3F5207F3FD07B68DB6AAE
:10188000B3F5307F3AD07B68DB6AB3F5807F35D023
:101890007B68DB6AB3F5407F30D07B68DB6AB3F5E9
:1018A000E07F2BD07B68DB6AB3F5007F26D07B68B6
:1018B000DB6AB3F5607F21D07B68DB6AB3F5507FCC
:1018C0001CD07B68DB6AB3F5707F17D07B68DB6A5E
:1018D000B3F58A5F12D07B68DB6AB3F5845F0DD005
:1018E0007B68DB6AB3F5865F08D07B68DB6A012B17
:1018F00004D04FF489711A48FFF7E0F87B685B6BFE
:10190000002B08D07B685B6B012B04D040F21311D5
:101910001348FFF7D3F87B685B69042B0CD07B6816
:101920005B69082B08D07B685B690C2B04D04FF4F3
:101930008A710B48FFF7C2F87B689B6B012B11D0B3
:101940007B689B6B002B0DD040F215110448FFF70C
:10195000B5F807E0000100500004005000050050F9
:10196000A09F02087B689B69002B08D07B689B695D
:10197000012B04D04FF48B719A48FFF79FF87B68D6
:101980001B69002B2AD07B681B6A002B03D07B6865
:101990001B6A102B04D94FF48D719248FFF78EF813
:1019A0007B685B6A002B08D07B685B6A012B04D0E4
:1019B00040F21B118B48FFF781F87B685B6A002BB4
:1019C0000CD07B689B6A002B03D07B689B6A082B3A
:1019D00004D94FF48F718348FFF770F87B685B6C14
:1019E00003F01003002B75D17B685B6C002B52D188
:1019F0007B6800229A647B6800221A657B6800225B
:101A0000DA647B68002283F840207868FFF7A4F846
:101A10007B681B689B6803F08053002B3BD1786880
:101A200004F0AAFE034687F86F307B685B6C03F016
:101A30001003002B2FD197F86F30002B2BD17B6830
:101A40005B6C23F4885323F0020343F002027B68AB
:101A50005A647B681B687A681268926822F0405268
:101A60009A607B681B687A681268926842F08052BC
:101A70009A605D4B1B685D4AA2FB03239A0C1346D8
:101A80009B0013445B00FB6002E0FB68013BFB60D2
:101A9000FB68002BF9D17B681B689B6803F08053BF
:101AA000002B06D07B681B689B6803F00053002B5B
:101AB00010D07B685B6C23F0120343F010027B684C
:101AC0005A647B689B6C43F001027B689A64012333
:101AD00087F86F307B685B6C03F01003002B40F0DD
:101AE000518197F86F30002B40F04C817B681B6868
:101AF0009B6803F00403002B40F044817B685B6C1F
:101B000023F4817343F002027B685A647B681B688C
:101B1000B3F1A04F04D07B681B68354A934201D1D2
:101B2000344B00E0344B7B667B681B68B3F1A04FFD
:101B300002D12F4B3B611AE07B681B682C4A934211
:101B400003D14FF0A0433B6111E07B681B682B4A37
:101B5000934202D12A4B3B6109E07B681B68284A0B
:101B6000934202D1254B3B6101E000233B617B683E
:101B70001B689B6803F00303012B08D17B681B687B
:101B80001B6803F00103002B01D0012300E00023B8
:101B9000002B1CD13B69002B10D03B699B6803F0E4
:101BA0000303012B07D13B691B6803F00103002BE2
:101BB00001D0012300E00023002B08D17B6E9B683D
:101BC00023F440327B685B681A437B6E9A607B68C3
:101BD000DB695A037B689B6B012B13D04FF4805356
:101BE00011E000BFA09F02080400002083DE1B4319
:101BF0000001005000030050000700500004005096
:101C00000005005000231A437B68DB681A437B6899
:101C10009B681343BA6E1343BB667B685B6A012BF8
:101C20001BD17B68DB69002B09D17B689B6A013B78
:101C30005A04BB6E134343F48033BB660DE07B68EC
:101C40005B6C23F0220343F020027B685A647B68BC
:101C50009B6C43F001027B689A647B68DB6A012B12
:101C600046D07B681B68504A934204D07B681B684F
:101C70004E4A934232D17B68DB6AB3F5307F2AD07B
:101C80007B68DB6AB3F5807F22D07B68DB6AB3F5C3
:101C9000E07F1AD07B68DB6AB3F58A5F12D07B687D
:101CA000DB6AB3F5845F0AD07B68DB6AB3F5865FD5
:101CB00002D07B68DB6A15E04FF4C07312E04FF48A
:101CC000A0730FE04FF470730CE04FF4807309E0E1
:101CD0004FF4307306E04FF4E07303E07B68DB6A97
:101CE00023F480537A68126B1343BA6E1343BB66B6
:101CF0007B681B689B6803F00C03002B13D17B6887
:101D00001A687B681B68DB6823F4804323F00203B6
:101D1000D3607B689B699A037B685B6B5B001343B2
:101D2000BA6E1343BB667B681A687B681B68D96808
:101D30001F4B0B40B96E0B43D3607B681B69012BB3
:101D40000CD17B681B687A681268126B22F00F0155
:101D50007A68126A013A0A431A6307E07B681B68D3
:101D60007A681268126B22F00F021A637B680022F5
:101D70009A647B685B6C23F0030343F001027B6889
:101D80005A640AE07B685B6C23F0120343F0100294
:101D90007B685A64012387F86F3097F86F301846D4
:101DA0007037BD4680BD00BF0004005000050050E4
:101DB00007C0F0FF80B59AB000AF7860002387F8C5
:101DC00067307B68002B01D1012383E17B681B68AE
:101DD000B3F1A04F13D07B681B68944A93420ED096
:101DE0007B681B68924A934209D07B681B68914AC2
:101DF000934204D04FF449718F48FEF75FFE7B6831
:101E00005B6C43F002027B685A646C21786804F0D2
:101E100013FD034687F8673097F86730002B18D119
:101E20007B681B687A681268D26842F40012DA6034
:101E3000786804F0A1FC034687F8673097F86730AC
:101E4000002B03D17B6801225A6402E0012387F84A
:101E5000673097F86730002B40F036817B681A684E
:101E60007B681B685B6823F4FF6323F00703536000
:101E70007B681B6840F2FF721A607B681B687A6897
:101E80001268926822F0E0429A607B681B687A6868
:101E90001268926842F000529A607B681A687B6808
:101EA0001B68D968654B0B40D3607B681A687B68F8
:101EB0001B685969624B0B4053617B681B687A68E9
:101EC0001268926902F078429A617B681B687A68AE
:101ED0001268126A02F0F0221A627B681B687A6844
:101EE0001268526A02F0FF225A627B681B687A68A5
:101EF0001268926A02F0FF229A627B681A687B6815
:101F00001B68196B4F4B0B4013637B681A687B6827
:101F10001B68596B4C4B0B4053637B681A687B689A
:101F20001B68996B484B0B4093637B681A687B680E
:101F30001B68DB6B23F4FB6323F00703D3637B682D
:101F40001A687B681B68196E404B0B4013667B68F0
:101F50001A687B681B68596E3C4B0B4053667B6864
:101F60001A687B681B68996E384B0B4093667B68D8
:101F70001A687B681B68D96E344B0B40D3667B684C
:101F80001A687B681B68D3F8A030DB0CDB04C2F84E
:101F9000A0307B681A687B681B68D3F8A430DB0C20
:101FA000DB04C2F8A4307B681A687B681B68D3F82E
:101FB000B030DB0CDB04C2F8B0307B681B687A6899
:101FC0001268D2F8B42022F07F12C3F8B4207B68E4
:101FD0001B68B3F1A04F04D07B681B68134A93427F
:101FE00001D11B4B00E01B4B3B667B681B68B3F1C8
:101FF000A04F02D10D4BFB6030E07B681B680B4AA1
:10200000934203D14FF0A043FB6027E07B681B683D
:10201000074A934202D1074BFB601FE07B681B68B5
:10202000044A934218D1024BFB6017E000010050B4
:102030000004005000050050A09F020804800080AA
:10204000070000C0300882E0200882E000F0FF03B3
:1020500000030050000700500023FB607B681B68F2
:102060009B6803F00303012B08D17B681B681B6886
:1020700003F00103002B01D0012300E00023002B1B
:1020800019D1FB68002B10D0FB689B6803F0030399
:10209000012B07D1FB681B6803F00103002B01D063
:1020A000012300E00023002B05D13B6E9A680B4B07
:1020B00013403A6E93607868FEF7CAFD7B68002291
:1020C0009A647B6800225A647B68002283F840206F
:1020D00097F8673018466837BD4680BDE0103CFE73
:1020E00080B584B000AF78600023FB737B681B6809
:1020F000B3F1A04F13D07B681B688C4A93420ED07B
:102100007B681B688A4A934209D07B681B68894AAE
:10211000934204D040F2BB418748FEF7CFFC7B6876
:102120001B689B6803F00403002B40F0F8807B6879
:1021300093F84030012B01D10223F3E07B680122A8
:1021400083F84020786804F0B9FA0346FB73FB7B00
:10215000002B40F0DF807B685B6C23F4706323F01E
:10216000010343F480727B685A647B681B68B3F197
:10217000A04F04D07B681B686C4A934206D16F4B1A
:102180009B6803F01F03002B10D005E06C4B9B688D
:1021900003F01F03002B09D07B681B68B3F1A04F2D
:1021A00004D07B681B68624A934215D17B685B6CE4
:1021B00023F480127B685A647B681B68DB6803F039
:1021C0000073002B36D07B685B6C23F4405343F4E0
:1021D00080527B685A642DE07B685B6C43F480120C
:1021E0007B685A647B681B68B3F1A04F04D07B689E
:1021F0001B684E4A93420AD14FF0A043DB6803F0BC
:102200000073002B14BF01230023DBB208E0484B0E
:10221000DB6803F00073002B14BF01230023DBB243
:10222000002B07D07B685B6C23F4405343F480524F
:102230007B685A647B685B6C03F48053002B06D088
:102240007B689B6C23F006027B689A6402E07B68E3
:1022500000229A647B68002283F840207B681B6818
:102260001C221A607B681B68B3F1A04F04D07B6806
:102270001B682E4A934206D1304B9B6803F01F0324
:10228000002B3ED005E02E4B9B6803F01F03002B74
:1022900037D07B681B68B3F1A04F04D07B681B6804
:1022A000224A934206D1254B9B6803F01F03052B5E
:1022B00027D005E0224B9B6803F01F03052B20D09D
:1022C0007B681B68B3F1A04F04D07B681B68174A7A
:1022D000934206D1194B9B6803F01F03092B10D0C2
:1022E00005E0174B9B6803F01F03092B09D07B689F
:1022F0001B68B3F1A04F04D07B681B680C4A934263
:102300000FD17B681B687A681268926842F00402F9
:102310009A6006E07B68002283F8402001E00223F7
:10232000FB73FB7B18461037BD4680BD0001005093
:102330000004005000050050A09F02080003005058
:102340000007005080B584B000AF78600023FB73B5
:102350007B681B68B3F1A04F13D07B681B68204AD1
:1023600093420ED07B681B681E4A934209D07B685B
:102370001B681D4A934204D040F289511B48FEF766
:102380009DFB7B6893F84030012B01D1022323E0B1
:102390007B68012283F840206C21786804F04CFAB5
:1023A0000346FB73FB7B002B11D1786804F0E4F942
:1023B0000346FB73FB7B002B09D17B685B6C23F42A
:1023C000885323F0010343F001027B685A647B6861
:1023D000002283F84020FB7B18461037BD4680BDA5
:1023E000000100500004005000050050A09F0208AA
:1023F00080B586B000AF7860396000233B617B68B0
:102400001B68B3F1A04F13D07B681B687E4A9342D0
:102410000ED07B681B687D4A934209D07B681B689D
:102420007B4A934204D040F2F5517A48FEF746FBCE
:102430007B685B69082B02D108237B613AE07B68EB
:102440001B68B3F1A04F04D07B681B686E4A9342AF
:1024500001D1714B00E0714BFB60FB689B6803F09E
:102460001F03002B12D17B681B68DB6803F001039C
:10247000002B1DD07B685B6C43F020027B685A64A4
:102480007B68002283F840200123B8E0FB689B684A
:1024900003F44043002B0BD07B685B6C43F02002BD
:1024A0007B685A647B68002283F840200123A6E001
:1024B0000C237B617B681B68B3F1A04F04D07B6861
:1024C0001B68514A934206D1534B9B6803F01F038C
:1024D000002B10D005E0514B9B6803F01F03002B2D
:1024E00009D07B681B68B3F1A04F04D07B681B68E0
:1024F000464A934204D17B681B68DB683B610FE06E
:102500007B681B68B3F1A04F04D07B681B683E4A10
:10251000934202D14FF0A04300E03C4BDB683B61AB
:10252000FEF7E2FEB8601AE03B68B3F1FF3F16D059
:102530003B68002B07D0FEF7D7FE0246BB68D21AD5
:102540003B689A420BD97B685B6C43F004027B6862
:102550005A647B68002283F8402003234FE07B68A5
:102560001B681A687B691340002BDDD07B685B6CAD
:1025700043F400727B685A647B681B68DB6803F471
:102580004063002B31D13B6903F40053002B2CD165
:102590007B681B681B6803F00803002B25D07B6851
:1025A0001B689B6803F00403002B12D17B685B6CF3
:1025B00023F480727B685A647B685B6C03F48053FD
:1025C000002B12D17B685B6C43F001027B685A647C
:1025D0000BE07B685B6C43F020027B685A647B688D
:1025E0009B6C43F001027B689A643B6903F480436F
:1025F000002B03D17B681B687A691A600023184698
:102600001837BD4680BD00BF0001005000040050D7
:1026100000050050A09F0208000300500007005072
:1026200080B586B000AFF860B9607A60FB681B685F
:10263000B3F1A04F13D0FB681B68584A93420ED0E9
:10264000FB681B68564A934209D0FB681B68554AD1
:10265000934204D040F221715348FEF72FFABB6831
:10266000802B13D0BB68B3F5807F0FD0BB68B3F568
:10267000007F0BD0BB68102B08D0BB68B3F5806F10
:1026800004D040F222714848FEF718FAFEF72CFEFB
:1026900078611AE07B68B3F1FF3F16D07B68002BAE
:1026A00007D0FEF721FE02467B69D21A7B689A4268
:1026B0000BD9FB685B6C43F00402FB685A64FB684F
:1026C000002283F84020032363E0FB681B681A683C
:1026D000BB681A40BB689A42DCD1BB68B3F5807F07
:1026E00017D0B3F5807F02D8802B07D03BE0B3F53D
:1026F000007F1AD0B3F5806F23D034E0FB685B6CA9
:1027000043F48032FB685A64FB681B6880221A60BD
:102710003EE0FB685B6C43F40032FB685A64FB6884
:102720001B684FF480721A6032E0FB685B6C43F404
:102730008022FB685A64FB681B684FF400721A60C1
:1027400026E0FB685B6C43F48042FB685A64FB68DC
:102750009B6C43F00802FB689A64FB681B684FF4AB
:1027600080621A6014E0FB689B6B012B0BD1FB6845
:102770005B6C43F48062FB685A64FB689B6C43F0BB
:102780000202FB689A64FB681B6810221A6000BF93
:10279000002318461837BD4680BD00BF0001005019
:1027A0000004005000050050A09F020880B584B0CE
:1027B00000AF78600023FB737B681B68B3F1A04F08
:1027C00013D07B681B689E4A93420ED07B681B68BF
:1027D0009C4A934209D07B681B689B4A934204D071
:1027E00040F2D3719948FEF769F97B681B689B68D2
:1027F00003F00403002B40F02F817B6893F84030F6
:10280000012B01D102232AE17B68012283F84020B9
:10281000786803F053FF0346FB73FB7B002B40F00B
:1028200009817B685B6C23F4706323F0010343F43C
:1028300080727B685A647B681B68B3F1A04F04D038
:102840007B681B687E4A934206D1814B9B6803F0EC
:102850001F03002B10D005E07E4B9B6803F01F0385
:10286000002B09D07B681B68B3F1A04F04D07B68B4
:102870001B68744A934215D17B685B6C23F4801209
:102880007B685A647B681B68DB6803F00073002B6D
:1028900036D07B685B6C23F4405343F480527B68F2
:1028A0005A642DE07B685B6C43F480127B685A6449
:1028B0007B681B68B3F1A04F04D07B681B68604A3B
:1028C00093420AD14FF0A043DB6803F00073002B62
:1028D00014BF01230023DBB208E05A4BDB6803F08E
:1028E0000073002B14BF01230023DBB2002B07D0A1
:1028F0007B685B6C23F4405343F480527B685A64DA
:102900007B685B6C03F48053002B06D07B689B6C68
:1029100023F006027B689A6402E07B6800229A64D6
:102920007B68002283F840207B681B681C221A60A9
:102930007B685B69082B10D17B681B687A6812681A
:10294000526822F004025A607B681B687A68126839
:10295000526842F008025A6008E07B681B687A6897
:102960001268526842F00C025A6000BF7B689B6B91
:10297000012B07D17B681B687A681268526822F0C5
:1029800010025A607B681B68B3F1A04F04D07B68CB
:102990001B682B4A934206D12D4B9B6803F01F0303
:1029A000002B3ED005E02B4B9B6803F01F03002B50
:1029B00037D07B681B68B3F1A04F04D07B681B68DD
:1029C0001F4A934206D1224B9B6803F01F03052B3D
:1029D00027D005E01F4B9B6803F01F03052B20D079
:1029E0007B681B68B3F1A04F04D07B681B68144A56
:1029F000934206D1164B9B6803F01F03092B10D09E
:102A000005E0144B9B6803F01F03092B09D07B687A
:102A10001B68B3F1A04F04D07B681B68094A93423E
:102A20001CD17B681B687A681268926842F00402C5
:102A30009A6013E07B68002283F840200EE000BF1C
:102A4000000100500004005000050050A09F020843
:102A500000030050000700500223FB73FB7B184665
:102A60001037BD4680BD00BF80B584B000AF786030
:102A70000023FB737B681B68B3F1A04F13D07B6806
:102A80001B68244A93420ED07B681B68224A9342FB
:102A900009D07B681B68214A934204D04FF40C6133
:102AA0001F48FEF70BF87B6893F84030012B01D1EB
:102AB00002232BE07B68012283F840206C21786898
:102AC00003F0BAFE0346FB73FB7B002B19D17B6836
:102AD0001B687A681268526822F01C025A60786893
:102AE00003F04AFE0346FB73FB7B002B09D17B6896
:102AF0005B6C23F4885323F0010343F001027B68ED
:102B00005A647B68002283F84020FB7B184610370C
:102B1000BD4680BD0001005000040050000500507B
:102B2000A09F020880B586B000AFF860B9607A60F7
:102B30000023FB75FB681B68B3F1A04F13D0FB6843
:102B40001B688B4A93420ED0FB681B68894A9342EC
:102B500009D0FB681B68884A934204D040F62A11CA
:102B60008648FDF7ABFFFB681B689B6803F0040316
:102B7000002B40F0F680FB6893F84030012B01D128
:102B80000223F1E0FB68012283F84020FB681B6808
:102B9000B3F1A04F04D0FB681B68754A934209D17A
:102BA000774B9B6803F01F03002B0CBF012300230E
:102BB000DBB208E0734B9B6803F01F03002B0CBFD4
:102BC00001230023DBB2002B00F0C480F86803F07F
:102BD00075FD0346FB75FB7D002B40F0B680FB685E
:102BE0005B6C23F4706323F0010343F48072FB6891
:102BF0005A64FB681B68B3F1A04F04D0FB681B68E4
:102C00005B4A934206D15E4B9B6803F01F03002B87
:102C100010D005E05B4B9B6803F01F03002B09D02D
:102C2000FB681B68B3F1A04F04D0FB681B68514AD6
:102C3000934215D1FB685B6C23F48012FB685A64E5
:102C4000FB681B68DB6803F00073002B36D0FB6861
:102C50005B6C23F4405343F48052FB685A642DE0CC
:102C6000FB685B6C43F48012FB685A64FB681B686A
:102C7000B3F1A04F04D0FB681B683D4A93420AD1D0
:102C80004FF0A043DB6803F00073002B14BF012357
:102C90000023DBB208E0374BDB6803F00073002B46
:102CA00014BF01230023DBB2002B07D0FB685B6C51
:102CB00023F4405343F48052FB685A64FB685B6C16
:102CC00003F48053002B06D0FB689B6C23F00602B4
:102CD000FB689A6402E0FB6800229A64FB680022A9
:102CE00083F84020FB68DB6B274A9A62FB68DB6B4A
:102CF000264ADA62FB68DB6B254A1A63FB681B68AD
:102D00001C221A60FB681B68FA681268526842F05D
:102D100010025A60FB681B68FA681268D26842F0B9
:102D20000102DA60FB68D86BFB681B684033194608
:102D3000BA687B6805F07CFDFB681B68FA6812685E
:102D4000926842F004029A600DE0FB68002283F86A
:102D5000402008E00123FB75FB68002283F8402037
:102D600001E00223FB75FB7D18461837BD4680BD88
:102D7000000100500004005000050050A09F020810
:102D80000003005000070050F16500086D66000860
:102D90008966000880B584B000AF78600023FB73BB
:102DA0007B681B68B3F1A04F13D07B681B68344A63
:102DB00093420ED07B681B68324A934209D07B68ED
:102DC0001B68314A934204D040F639212F48FDF761
:102DD00075FE7B6893F84030012B01D102234AE055
:102DE0007B68012283F840206C21786803F024FD81
:102DF0000346FB73FB7B002B38D17B681B687A682A
:102E00001268D26822F00102DA607B68DB6B184638
:102E100005F066FD0346FB73FB7B002B05D07B684A
:102E20005B6C43F040027B685A647B681B687A687D
:102E30001268526822F010025A60FB7B002B05D109
:102E4000786803F099FC0346FB7302E0786803F0AE
:102E500093FCFB7B002B09D17B685B6C23F48853CC
:102E600023F0010343F001027B685A647B6800226F
:102E700083F84020FB7B18461037BD4680BD00BF5D
:102E8000000100500004005000050050A09F0208FF
:102E900080B582B000AF78607B681B68B3F1A04F4B
:102EA00013D07B681B680C4A93420ED07B681B686A
:102EB0000A4A934209D07B681B68094A934204D0AE
:102EC00040F6CD210748FDF7F9FD7B681B681B6CB8
:102ED00018460837BD4680BD000100500004005070
:102EE00000050050A09F020880B586B000AF786052
:102EF00000237B6100233B610023FB607B681B6830
:102F0000B3F1A04F13D07B681B689D4A93420ED04B
:102F10007B681B689B4A934209D07B681B689A4A6E
:102F2000934204D040F60C319848FDF7C7FD7B680A
:102F3000DB69002B08D07B68DB69012B04D040F6ED
:102F40000D319248FDF7BAFD7B685B69042B0CD00C
:102F50007B685B69082B08D07B685B690C2B04D00D
:102F600040F60E318948FDF7A9FD7B681B681B6898
:102F700003F00403002B06D07B681B685B6803F03A
:102F80000403002B0FD17B681B681B6803F0080348
:102F9000002B00F0C0807B681B685B6803F00803AF
:102FA000002B00F0B8807B685B6C03F01003002BF3
:102FB00005D17B685B6C43F400727B685A647B6864
:102FC0001B68B3F1A04F04D07B681B686C4A934226
:102FD00006D16F4B9B6803F01F03002B3ED005E02A
:102FE0006C4B9B6803F01F03002B37D07B681B687A
:102FF000B3F1A04F04D07B681B68614A934206D1AD
:10300000634B9B6803F01F03052B27D005E0614B42
:103010009B6803F01F03052B20D07B681B68B3F16E
:10302000A04F04D07B681B68554A934206D1584B89
:103030009B6803F01F03092B10D005E0554B9B68DC
:1030400003F01F03092B09D07B681B68B3F1A04F65
:1030500004D07B681B684B4A934204D17B681B6891
:10306000DB683B610FE07B681B68B3F1A04F04D0C5
:103070007B681B68424A934202D14FF0A04300E0B4
:10308000404BDB683B617B681B68DB6803F4406393
:10309000002B39D13B6903F40053002B34D17B68FA
:1030A0001B681B6803F00803002B2DD07B681B688E
:1030B0009B6803F00403002B1AD17B681B687A68B5
:1030C0001268526822F00C025A607B685B6C23F431
:1030D00080727B685A647B685B6C03F48053002BBE
:1030E00012D17B685B6C43F001027B685A640BE091
:1030F0007B685B6C43F010027B685A647B689B6C56
:1031000043F001027B689A6478681CF0E1FC7B68FC
:103110001B680C221A607B681B681B6803F0200385
:10312000002B06D07B681B685B6803F02003002B34
:103130000FD17B681B681B6803F04003002B00F075
:1031400048817B681B685B6803F04003002B00F03C
:1031500040817B685B6C43F400527B685A647B68F7
:103160001B68B3F1A04F04D07B681B68044A9342EC
:1031700012D1074B9B6803F01F03002B4AD011E0CC
:10318000000100500004005000050050A09F0208FC
:103190000003005000070050804B9B6803F01F03A2
:1031A000002B37D07B681B68B3F1A04F04D07B683D
:1031B0001B687B4A934206D17A4B9B6803F01F033E
:1031C000052B27D005E0754B9B6803F01F03052BEB
:1031D00020D07B681B68B3F1A04F04D07B681B68CC
:1031E0006F4A934206D16F4B9B6803F01F03092B74
:1031F00010D005E0694B9B6803F01F03092B09D031
:103200007B681B68B3F1A04F04D07B681B68664ADB
:10321000934204D17B681B68DB683B610FE07B68ED
:103220001B68B3F1A04F04D07B681B685C4A9342D3
:1032300002D14FF0A04300E05B4BDB683B617B6851
:103240001B68DB6C03F0C003002B13D03B6903F059
:103250000073002B40F0B6807B681B68DB6803F4CA
:103260004063002B40F0AE803B6903F40053002B19
:1032700040F0A8807B681B681B6803F04003002BAC
:1032800000F0A0807B681B68B3F1A04F04D07B687E
:103290001B68434A934206D1424B9B6803F01F03CD
:1032A000002B3ED005E03D4B9B6803F01F03002B35
:1032B00037D07B681B68B3F1A04F04D07B681B68D4
:1032C000374A934206D1374B9B6803F01F03062B06
:1032D00027D005E0314B9B6803F01F03062B20D05D
:1032E0007B681B68B3F1A04F04D07B681B682C4A35
:1032F000934206D12B4B9B6803F01F03072B10D082
:1033000005E0264B9B6803F01F03072B09D07B6861
:103310001B68B3F1A04F04D07B681B68224A93421C
:1033200004D17B681B68DB68FB600FE07B681B686F
:10333000B3F1A04F04D07B681B68194A934202D1B5
:103340004FF0A04300E0184BDB68FB60FB6803F420
:103350000013002B36D17B681B689B6803F00803C1
:10336000002B23D17B681B687A681268526822F0B0
:1033700060025A607B685B6C23F480527B685A64FD
:103380007B685B6C03F48073002B1BD17B685B6CE8
:1033900043F001027B685A6414E000BF000700504C
:1033A0000001005000030050000400507B685B6C7B
:1033B00043F010027B685A647B689B6C43F0010207
:1033C0007B689A64786801F0E1FA7B681B68602288
:1033D0001A607B681B681B6803F08003002B13D006
:1033E0007B681B685B6803F08003002B0CD07B6854
:1033F0005B6C43F480327B685A647868FEF7F4F8BB
:103400007B681B6880221A607B681B681B6803F45A
:103410008073002B14D07B681B685B6803F4807397
:10342000002B0DD07B685B6C43F400327B685A64E0
:10343000786801F0BFFA7B681B684FF480721A60ED
:103440007B681B681B6803F40073002B14D07B6837
:103450001B685B6803F40073002B0DD07B685B6C0A
:1034600043F480227B685A64786801F0ADFA7B6887
:103470001B684FF400721A607B681B681B6803F0BE
:103480001003002B49D07B681B685B6803F01003B6
:10349000002B42D07B689B6B012B02D101237B6107
:1034A00025E07B681B68B3F1A04F04D07B681B68E4
:1034B0002D4A934201D12D4B00E02D4BBB60BB68E0
:1034C0009B6803F01F03002B09D17B681B68DB6836
:1034D00003F00103002B0AD001237B6107E0BB68E6
:1034E0009B6803F44043002B01D001237B617B697F
:1034F000012B0ED17B685B6C43F480627B685A645D
:103500007B689B6C43F002027B689A647868FEF7E4
:1035100075F87B681B6810221A607B681B681B6843
:1035200003F48063002B1AD07B681B685B6803F48C
:103530008063002B13D07B685B6C43F480427B6814
:103540005A647B689B6C43F008027B689A647B68D2
:103550001B684FF480621A60786801F021FA00BF9E
:103560001837BD4680BD00BF000100500003005069
:103570000007005080B584B000AF78603960002348
:10358000FB737B681B68B3F1A04F13D07B681B688B
:103590003F4A93420ED07B681B683E4A934209D053
:1035A0007B681B683C4A934204D040F6B5413B48D7
:1035B000FDF784FA3B68002B07D03B68012B04D051
:1035C00040F6B6413548FDF779FA7B6893F840300C
:1035D000012B01D1022357E07B68012283F84020B0
:1035E000786803F0C9F80346FB73FB7B002B44D1DA
:1035F0007B6801225A647B681B687A68126892684B
:1036000022F080429A603B68012B07D17B681B68DF
:103610007A681268926842F080429A607B681B6800
:103620007A681268926842F000429A60FDF75CFE88
:10363000B86014E0FDF758FE0246BB68D31A0A2BA7
:103640000DD97B685B6C23F0120343F010027B689A
:103650005A647B68002283F84020012314E07B68D1
:103660001B689B68002BE5DB7B685B6C23F0030326
:1036700043F001027B685A6401E00123FB737B681D
:10368000002283F84020FB7B18461037BD4680BDE2
:10369000000100500004005000050050A09F0208E7
:1036A00080B582B000AF786039607B681B68B3F189
:1036B000A04F13D07B681B68174A93420ED07B68DB
:1036C0001B68164A934209D07B681B68144A9342D0
:1036D00004D040F674511348FDF7F0F93B68002B15
:1036E00007D03B68012B04D040F675510D48FDF71B
:1036F000E5F93B68012B05D17B681B68D3F8B43032
:103700001B0C05E07B681B68D3F8B43003F07F0323
:1037100018460837BD4680BD000100500004005027
:1037200000050050A09F020880B586B000AFF86089
:10373000B9607A600023FB75FB681B68B3F1A04F8A
:1037400013D0FB681B683E4A93420ED0FB681B688F
:103750003C4A934209D0FB681B683B4A934204D021
:1037600040F699513948FDF7A9F9BB68002B07D0FD
:10377000BB68012B04D040F69A513448FDF79EF9FE
:103780007B687F2B04D940F69B513048FDF796F9B2
:10379000FB6893F84030012B01D102234CE0FB6819
:1037A000012283F84020FB681B689B6803F0030339
:1037B000012B08D1FB681B681B6803F00103002B79
:1037C00001D0012300E00023002B24D0FB681B68FC
:1037D0009B6803F00C03002B1DD1BB68012B0DD19E
:1037E000FB681B68FA681268D2F8B42022F4FE0164
:1037F0007A6812040A43C3F8B42018E0FB681B6817
:10380000FA681268D2F8B42022F07F017A680A437D
:10381000C3F8B4200BE0FB685B6C43F02002FB684C
:103820005A64FB689B6C43F00102FB689A64FB6876
:10383000002283F84020FB7D18461837BD4680BD26
:10384000000100500004005000050050A09F020835
:1038500080B584B000AF78600023FB737B681B6881
:10386000B3F1A04F13D07B681B68714A93420ED00E
:103870007B681B686F4A934209D07B681B686E4A5D
:10388000934204D040F6DA516C48FDF717F97B6893
:103890001B689B6803F00803002B40F0C1807B6825
:1038A00093F84030012B01D10223BCE07B68012258
:1038B00083F84020786802F001FF0346FB73FB7B2E
:1038C000002B40F0A8807B685B6C23F4405323F00E
:1038D000010343F480527B685A647B681B68B3F130
:1038E000A04F04D07B681B68514A934206D1544BC9
:1038F0009B6803F01F03002B10D005E0514B9B6821
:1039000003F01F03002B09D07B681B68B3F1A04FA5
:1039100004D07B681B68474A934206D17B685B6C86
:1039200023F480127B685A6405E07B685B6C43F487
:1039300080127B685A647B685B6C03F48073002B95
:1039400002D17B6800229A647B68002283F84020C1
:103950007B681B6860221A607B681B68DB6803F069
:103960000073002B5ED17B681B68B3F1A04F04D0BD
:103970007B681B682E4A934206D1314B9B6803F04B
:103980001F03002B3ED005E02E4B9B6803F01F0366
:10399000002B37D07B681B68B3F1A04F04D07B6845
:1039A0001B68234A934206D1254B9B6803F01F03F3
:1039B000062B27D005E0234B9B6803F01F03062B43
:1039C00020D07B681B68B3F1A04F04D07B681B68D4
:1039D000174A934206D11A4B9B6803F01F03072B2B
:1039E00010D005E0174B9B6803F01F03072B09D08D
:1039F0007B681B68B3F1A04F04D07B681B680D4A3D
:103A000093420FD17B681B687A681268926842F013
:103A100008029A6006E07B68002283F8402001E0FB
:103A20000223FB73FB7B18461037BD4680BD00BFE9
:103A3000000100500004005000050050A09F020843
:103A4000000300500007005080B584B000AF7860DC
:103A50000023FB737B681B68B3F1A04F13D07B6816
:103A60001B68324A93420ED07B681B68304A9342EF
:103A700009D07B681B682F4A934204D040F69661B8
:103A80002D48FDF71BF87B6893F84030012B01D1DE
:103A9000022347E07B68012283F840207B681B6893
:103AA000DB6803F00073002B2FD16021786802F0EF
:103AB000C3FE0346FB73FB7B002B2ED17B681B6888
:103AC0009B6803F00403002B18D17B685B6C03F444
:103AD0008073002B12D1786802F04EFE0346FB7310
:103AE000FB7B002B19D17B685B6C23F4885323F09C
:103AF000010343F001027B685A640EE07B685B6C53
:103B000023F480527B685A6407E07B685B6C43F067
:103B100020027B685A640123FB737B68002283F8D0
:103B20004020FB7B18461037BD4680BD0001005089
:103B30000004005000050050A09F020880B586B028
:103B400000AF7860396000233B617B681B68B3F18C
:103B5000A04F13D07B681B685A4A93420ED07B68F3
:103B60001B68594A934209D07B681B68574A9342A5
:103B700004D040F627715648FCF7A0FF7B685B69CC
:103B8000082B02D140237B6101E060237B617B68CD
:103B90001B68B3F1A04F04D07B681B68494A93426D
:103BA00006D14C4B9B6803F01F03002B10D005E09F
:103BB000494B9B6803F01F03002B09D07B681B68EF
:103BC000B3F1A04F04D07B681B683F4A934204D1F5
:103BD0007B681B68DB683B610FE07B681B68B3F1A7
:103BE000A04F04D07B681B68364A934202D14FF045
:103BF000A04300E0344BDB683B61FDF775FBF860E8
:103C00001AE03B68B3F1FF3F16D03B68002B07D0AA
:103C1000FDF76AFB0246FB68D21A3B689A420BD951
:103C20007B685B6C43F004027B685A647B6800220B
:103C300083F84020032340E07B681B681A687B6997
:103C40001340002BDDD07B685B6C43F400527B6833
:103C50005A647B681B68DB6C03F0C003002B10D038
:103C60003B6903F00073002B1DD17B681B68DB6888
:103C700003F44063002B16D13B6903F40053002B7F
:103C800011D17B685B6C23F480527B685A647B683B
:103C90005B6C03F48073002B05D17B685B6C43F095
:103CA00001027B685A643B6903F48043002B03D113
:103CB0007B681B687A691A60002318461837BD466E
:103CC00080BD00BF000100500004005000050050FE
:103CD000A09F0208000300500007005080B584B088
:103CE00000AF78600023FB737B681B68B3F1A04FC3
:103CF00013D07B681B68874A93420ED07B681B6891
:103D0000854A934209D07B681B68844A934204D059
:103D100041F208018248FCF7D1FE7B681B689B6872
:103D200003F00803002B40F0EE807B6893F84030EE
:103D3000012B01D10223E9E07B68012283F84020B6
:103D4000786802F0BBFC0346FB73FB7B002B40F062
:103D5000D5807B685B6C23F4405323F0010343F46C
:103D600080527B685A647B681B68B3F1A04F04D013
:103D70007B681B68674A934206D16A4B9B6803F0D5
:103D80001F03002B10D005E0674B9B6803F01F0357
:103D9000002B09D07B681B68B3F1A04F04D07B686F
:103DA0001B685D4A934206D17B685B6C23F48012EA
:103DB0007B685A6405E07B685B6C43F480127B6827
:103DC0005A647B685B6C03F48073002B02D17B68C0
:103DD00000229A647B68002283F840207B681B687D
:103DE00060221A607B681B68DB6803F40013002BF9
:103DF00007D07B681B687A681268526842F4806258
:103E00005A607B685B69082B10D17B681B687A68F5
:103E10001268526822F020025A607B681B687A6838
:103E20001268526842F040025A6008E07B681B68E2
:103E30007A681268526842F060025A6000BF7B687C
:103E40001B68DB6803F00073002B5ED17B681B6886
:103E5000B3F1A04F04D07B681B682E4A934206D171
:103E6000304B9B6803F01F03002B3ED005E02E4B28
:103E70009B6803F01F03002B37D07B681B68B3F1EE
:103E8000A04F04D07B681B68224A934206D1254B81
:103E90009B6803F01F03062B27D005E0224B9B688D
:103EA00003F01F03062B20D07B681B68B3F1A04FE3
:103EB00004D07B681B68174A934206D1194B9B6854
:103EC00003F01F03072B10D005E0174B9B6803F08E
:103ED0001F03072B09D07B681B68B3F1A04F04D0E8
:103EE0007B681B680C4A93420FD17B681B687A6819
:103EF0001268926842F008029A6006E07B6800222D
:103F000083F8402001E00223FB73FB7B1846103747
:103F1000BD4680BD00010050000400500005005067
:103F2000A09F0208000300500007005080B584B035
:103F300000AF78600023FB737B681B68B3F1A04F70
:103F400013D07B681B68364A93420ED07B681B688F
:103F5000344A934209D07B681B68334A934204D0A9
:103F600041F2E4013148FCF7A9FD7B6893F8403049
:103F7000012B01D102234FE07B68012283F840200E
:103F80007B681B68DB6803F00073002B37D160216E
:103F9000786802F051FC0346FB73FB7B002B36D1A3
:103FA0007B681B687A681268526822F48C625A60D7
:103FB0007B681B689B6803F00403002B18D17B68A7
:103FC0005B6C03F48073002B12D1786802F0D4FB91
:103FD0000346FB73FB7B002B19D17B685B6C23F4DE
:103FE000885323F0010343F001027B685A640EE01A
:103FF0007B685B6C23F480527B685A6407E07B68C3
:104000005B6C43F020027B685A640123FB737B687E
:10401000002283F84020FB7B18461037BD4680BD48
:10402000000100500004005000050050A09F02084D
:1040300080B59CB000AFF860B9607A60002387F863
:104040006F30FB681B68B3F1A04F09D0FB681B6899
:10405000734A934204D041F286117248FCF72EFD58
:10406000FB68DB69002B08D0FB68DB69012B04D0FF
:1040700041F287116B48FCF721FDFB681B6B002B9D
:1040800013D0FB681B6BB3F5806F0ED0FB681B6B06
:10409000B3F5006F09D0FB681B6BB3F5406F04D01C
:1040A00041F288115F48FCF709FDFB685B6B002B50
:1040B00008D0FB685B6B012B04D041F28911594891
:1040C000FCF7FCFCFB6893F84030012B01D1022384
:1040D000A2E0FB68012283F84020FB681B689B6814
:1040E00003F00403002B40F09280FB681B68B3F1DF
:1040F000A04F02D14C4B7B6109E0FB681B68484A2A
:10410000934202D1494B7B6101E000237B617B69D3
:10411000002B0BD1FB685B6C43F02002FB685A64F8
:10412000FB68002283F84020012375E0F86802F064
:10413000C5FA034687F86F3097F86F30002B07D128
:1041400007F11403184602F0B9FA034687F86F30F6
:1041500097F86F30002B55D1FB685A6C344B1340E5
:1041600043F48072FB685A64FB681B68DB6803F0E9
:104170000073002B07D0FB685B6C23F4405343F4BF
:104180008052FB685A64FB68002283F84020FB6879
:1041900000229A64FB68DB6B264A9A62FB68DB6B41
:1041A000254ADA62FB68DB6B244A1A63FB681B68EA
:1041B000B3F1A04F04D0FB681B681B4A934201D1A6
:1041C0001F4B00E01F4BBB66FB681B681C221A607C
:1041D000FB681B68FA681268526842F010025A6065
:1041E000FB68D86BBB6E0C331946BA687B6804F069
:1041F0001FFBFB681B68FA681268926842F00402B1
:104200009A6007E0FB68002283F8402002E0022366
:1042100087F86F3097F86F3018467037BD4680BD0D
:1042200000040050A09F020800010050000500504B
:10423000FEF0EFFFF16500086D6600088966000872
:10424000000300500007005080B59AB000AF7860BE
:10425000002387F867307B681B68B3F1A04F09D053
:104260007B681B685A4A934204D041F21221594894
:10427000FCF724FC7B6893F84030012B01D102232A
:10428000A2E07B68012283F840206C21786802F06C
:10429000D3FA034687F8673097F86730002B40F071
:1042A0008D807B681B68B3F1A04F02D14A4BFB6045
:1042B00009E07B681B68464A934202D1474BFB608A
:1042C00001E00023FB60FB68002B0BD17B685B6C7B
:1042D00043F040027B685A647B68002283F84020E8
:1042E000012371E0FDF700F8386612E0FCF7FCFFEF
:1042F00002463B6ED31A0B2B0BD97B685B6C43F0E9
:1043000010027B685A647B68002283F840200123F6
:104310005AE07B681B689B6803F00403002BE5D11F
:10432000FB689B6803F00403002BDFD17B68DB6B29
:10433000184604F0D5FA034687F8673097F86730D7
:10434000002B05D07B685B6C43F040027B685A64AD
:104350007B681B687A681268526822F010025A6003
:1043600097F86730002B1BD1786802F005FA0346F6
:10437000012B23D007F10C03184602F0FDF9034688
:10438000012B1BD0002387F867307B685B6C23F41C
:10439000885323F0010343F001027B685A640DE067
:1043A000786802F0E9F907F10C03184602F0E4F925
:1043B0007B685B6C43F010027B685A647B68002268
:1043C00083F8402097F8673018466837BD4680BDAF
:1043D00000040050A09F020800010050000500509A
:1043E00080B584B000AF78607B681B68B3F1A04FE4
:1043F00009D07B681B680E4A934204D041F28821A1
:104400000C48FCF75BFB7B681B68B3F1A04F04D042
:104410007B681B68084A934201D1084B00E0084BB7
:10442000FB60FB68DB6818461037BD4680BD00BFE7
:1044300000040050A09F020800010050000300503B
:104440000007005080B584B000AF78603960002369
:10445000FB607B681B68B3F1A04F13D07B681B68BF
:10446000234A93420ED07B681B68224A934209D0AC
:104470007B681B68204A934204D041F2BB211F484D
:10448000FCF71CFB3B68012B0DD03B68022B0AD0CC
:104490003B68032B07D03B68042B04D041F2BC21BE
:1044A0001648FCF70BFB3B68032B0AD0042B02D009
:1044B000022B0CD011E07B681B68D3F88C30FB60BA
:1044C00011E07B681B68D3F88830FB600BE07B68E9
:1044D0001B68D3F88430FB6005E07B681B68D3F869
:1044E0008030FB6000BFFB6818461037BD4680BDBA
:1044F000000100500004005000050050A09F020879
:1045000080B584B000AF78600023FB737B681B68C4
:10451000B3F1A04F13D07B681B68294A93420ED099
:104520007B681B68274A934209D07B681B68264A30
:10453000934204D041F22D312448FCF7BFFA7B6846
:1045400093F84030012B01D1022334E07B68012233
:1045500083F840200C21786802F06EF90346FB7363
:104560007B681B689B6803F00803002B18D17B68ED
:104570005B6C03F48053002B12D1786802F0FCF8D6
:104580000346FB73FB7B002B10D17B685B6C23F431
:10459000885323F0010343F001027B685A6405E06D
:1045A0007B685B6C23F480727B685A647B680022B2
:1045B00083F84020FB7B18461037BD4680BD00BF06
:1045C000000100500004005000050050A09F0208A8
:1045D00080B584B000AF78600023FB737B681B68F4
:1045E000B3F1A04F13D07B681B682D4A93420ED0C5
:1045F0007B681B682B4A934209D07B681B682A4A58
:10460000934204D041F277312848FCF757FA7B688F
:1046100093F84030012B01D102233CE07B6801225A
:1046200083F840200C21786802F006F90346FB73FA
:104630007B681B689B6803F00803002B20D17B6814
:104640005B6C03F48053002B1AD17B681B687A687B
:104650001268526822F01C025A60786802F08CF8E6
:104660000346FB73FB7B002B10D17B685B6C23F450
:10467000885323F0010343F001027B685A6405E08C
:104680007B685B6C23F480727B685A647B680022D1
:1046900083F84020FB7B18461037BD4680BD00BF25
:1046A000000100500004005000050050A09F0208C7
:1046B00080B584B000AF78600023FB737B681B6813
:1046C000B3F1A04F13D07B681B683C4A93420ED0D5
:1046D0007B681B683A4A934209D07B681B68394A59
:1046E000934204D041F2C7313748FCF7E7F97B68C1
:1046F00093F84030012B01D102235BE07B6801225B
:1047000083F840200C21786802F096F80346FB738A
:104710007B681B689B6803F00803002B3FD17B6814
:104720005B6C03F48053002B39D17B681B687A687B
:104730001268D26822F00102DA607B68DB6B1846EF
:1047400004F0CEF80346FB73FB7B002B05D07B689F
:104750005B6C43F040027B685A647B681B687A6834
:104760001268526822F010025A60FB7B002B05D1C0
:10477000786802F001F80346FB7302E0786801F004
:10478000FBFFFB7B002B10D17B685B6C23F4885311
:1047900023F0010343F001027B685A6405E07B6863
:1047A0005B6C23F480727B685A647B68002283F818
:1047B0004020FB7B18461037BD4680BD00010050ED
:1047C0000004005000050050A09F020880B59AB078
:1047D00000AF7860002387F867307B681B68B3F10F
:1047E000A04F09D07B681B68644A934204D041F211
:1047F00039416348FCF762F97B6893F84030012B3C
:1048000001D10223B5E07B68012283F840200C210E
:10481000786802F011F8034687F867307B681B68F8
:104820009B6803F00803002B40F095807B685B6C6D
:1048300003F48053002B40F08E807B681B68B3F13B
:10484000A04F02D14F4BFB6009E07B681B684B4ACD
:10485000934202D14C4BFB6001E00023FB60FB68FC
:10486000002B0BD17B685B6C43F040027B685A6481
:104870007B68002283F8402001237AE0FCF734FDB6
:10488000386612E0FCF730FD02463B6ED31A0B2B64
:104890000BD97B685B6C43F010027B685A647B68C1
:1048A000002283F84020012363E07B681B689B683B
:1048B00003F00403002BE5D1FB689B6803F00403BD
:1048C000002BDFD17B68DB6B184604F009F8034648
:1048D00087F8673097F86730002B05D07B685B6CF2
:1048E00043F040027B685A647B681B687A681268F0
:1048F000526822F010025A6097F86730002B1BD1E3
:10490000786801F039FF0346012B2BD007F10C0327
:10491000184601F031FF0346012B23D0002387F80E
:1049200067307B685B6C23F4885323F0010343F00A
:1049300001027B685A6415E0786801F01DFF07F1F9
:104940000C03184601F018FF7B685B6C43F0100203
:104950007B685A6406E07B685B6C23F480727B683A
:104960005A6400E000BF7B68002283F8402097F87B
:10497000673018466837BD4680BD00BF0004005050
:10498000A09F0208000100500005005080B483B0D1
:1049900000AF786000BF0C37BD465DF8047B704700
:1049A00080B483B000AF786000BF0C37BD465DF8BF
:1049B000047B704780B483B000AF786000BF0C37D1
:1049C000BD465DF8047B704780B483B000AF78606B
:1049D00000BF0C37BD465DF8047B704790B59DB0B5
:1049E00000AF78603960002387F86F300023FB60E8
:1049F0007B681B68B3F1A04F13D07B681B686B4AC0
:104A000093420ED07B681B68694A934209D07B6849
:104A10001B68684A934204D041F241516648FCF752
:104A20004DF83B685B68012B40D03B685B68022B0C
:104A30003CD03B685B68032B38D03B685B68042B39
:104A400034D03B685B68052B30D03B685B68062B35
:104A50002CD03B685B68072B28D03B685B68082B31
:104A600024D03B685B68092B20D03B685B680A2B2D
:104A70001CD03B685B680B2B18D03B685B680C2B29
:104A800014D03B685B680D2B10D03B685B680E2B25
:104A90000CD03B685B680F2B08D03B685B68102B21
:104AA00004D041F242514448FCF708F83B689B6847
:104AB000002B20D03B689B68012B1CD03B689B6877
:104AC000022B18D03B689B68032B14D03B689B6873
:104AD000042B10D03B689B68052B0CD03B689B686F
:104AE000062B08D03B689B68072B04D041F243514A
:104AF0003148FBF7E3FF3B68DB68002B08D03B68DD
:104B0000DB68012B04D041F244512B48FBF7D6FF60
:104B10003B681B69002B14D03B681B69012B10D02C
:104B20003B681B69022B0CD03B681B69032B08D028
:104B30003B681B69042B04D041F245511E48FBF72A
:104B4000BDFF7B681B68DB6803F01803002B04D1F2
:104B50003B685B69B3F5805F30D37B681B68DB68BB
:104B600003F01803082B04D13B685B69B3F5806F31
:104B700024D37B681B68DB6803F01803102B03D178
:104B80003B685B69FF2B19D97B681B68DB6803F006
:104B90001803182B03D13B685B693F2B0ED941F2F8
:104BA00046510548FBF78AFF08E000BF00010050AE
:104BB0000004005000050050A09F02083B68DB681D
:104BC000012B63D03B681B68012B00F09C803B6885
:104BD0001B68022B00F097803B681B68032B00F0DA
:104BE00092803B681B68042B00F08D803B681B683B
:104BF000052B00F088803B681B68062B00F0838043
:104C00003B681B68072B7ED03B681B68082B7AD05B
:104C10003B681B68092B76D03B681B680A2B72D057
:104C20003B681B680B2B6ED03B681B680C2B6AD053
:104C30003B681B680D2B66D03B681B680E2B62D04F
:104C40003B681B680F2B5ED03B681B68102B5AD04B
:104C50003B681B68112B56D03B681B68122B52D047
:104C60003B681B680F2B4ED03B681B68112B4AD04A
:104C70003B681B68112B46D03B681B68112B42D048
:104C800041F24E51A448FBF719FF3CE03B681B681A
:104C9000012B38D03B681B68022B34D03B681B6863
:104CA000032B30D03B681B68042B2CD03B681B685F
:104CB000052B28D03B681B68062B24D03B681B685B
:104CC000072B20D03B681B68082B1CD03B681B6857
:104CD000092B18D03B681B680A2B14D03B681B6853
:104CE0000B2B10D03B681B680C2B0CD03B681B684F
:104CF0000D2B08D03B681B680E2B04D041F252519B
:104D00008548FBF7DBFE7B6893F84030012B01D12F
:104D10000223D0E27B68012283F840207B681B6875
:104D20009B6803F00403002B40F0B4823B685B688F
:104D3000042B1CD87B6819687B681B68186B3B6860
:104D40005A6813465B0013445B001A461F239340C6
:104D5000DB4318403B681C683B685A6813465B009D
:104D600013445B0004FA03F303430B6363E03B6803
:104D70005B68092B1ED87B6819687B681B68586BB9
:104D80003B685A6813465B0013445B001E3B1F22BE
:104D900002FA03F3DB4318403B681C683B685A681F
:104DA00013465B0013445B001E3B04FA03F303430A
:104DB0004B6340E03B685B680E2B1ED87B6819682C
:104DC0007B681B68986B3B685A6813465B0013440A
:104DD0005B003C3B1F2202FA03F3DB4318403B68B5
:104DE0001C683B685A6813465B0013445B003C3BFD
:104DF00004FA03F303438B631DE07B6819687B6847
:104E00001B68D86B3B685A6813465B0013445B0011
:104E10005A3B1F2202FA03F3DB4318403B681C682D
:104E20003B685A6813465B0013445B005A3B04FA24
:104E300003F30343CB637B681B689B6803F00C039D
:104E4000002B40F0E9803B681B68092B1CD97B686C
:104E500019687B681B6898693B681A6813465B0091
:104E600013441E3B072202FA03F3DB4318403B685E
:104E70009C683B681A6813465B0013441E3B04FAA7
:104E800003F303438B6119E07B6819687B681B6837
:104E900058693B681A6813465B001344072202FAFC
:104EA00003F3DB4318403B689C683B681A68134671
:104EB0005B00134404FA03F303434B613B685A69F4
:104EC0007B681B68DB6803F01803DB085B0002FAF1
:104ED00003F3BB663B681B69013B032B53D801A25C
:104EE00052F823F0F54E0008214F0008434F000808
:104EF000654F00087B681A687B681B68196E074B52
:104F00000B40396809688806B96E01430B4343F0CA
:104F10000043136680E000BFA09F020800F0FF83FB
:104F20007B681A687B681B68596E9C4B0B4039681C
:104F300009688806B96E01430B4343F0004353668A
:104F40006AE07B681A687B681B68996E934B0B401C
:104F5000396809688806B96E01430B4343F0004382
:104F6000936659E07B681A687B681B68D96E8B4B27
:104F70000B40396809688806B96E01430B4343F05A
:104F80000043D36648E07B681B681B6E03F0F84261
:104F90003B681B689B069A4207D17B681B687A684E
:104FA0001268126E22F000421A667B681B685B6E04
:104FB00003F0F8423B681B689B069A4207D17B6866
:104FC0001B687A681268526E22F000425A667B684B
:104FD0001B689B6E03F0F8423B681B689B069A4275
:104FE00007D17B681B687A681268926E22F00042D3
:104FF0009A667B681B68DB6E03F0F8423B681B68AF
:105000009B069A4207D17B681B687A681268D26E49
:1050100022F00042DA6600BF7B681B689B6803F0E1
:105020000303012B08D17B681B681B6803F0010395
:10503000002B01D0012300E00023002B40F035813C
:105040003B68DB68012B0FD07B681B687A681268AD
:10505000D2F8B0103A681268012000FA02F2D24386
:105060000A40C3F8B0204AE07B681B687A6812687F
:10507000D2F8B0103A681268012000FA02F20A432E
:10508000C3F8B0203B681B68092B1CD97B681968E2
:105090007B681B6898693B681A6813465B00134479
:1050A0001B3B072202FA03F3DB4318403B689C6872
:1050B0003B681A6813465B0013441B3B04FA03F376
:1050C00003438B611BE07B6819687B681B68586928
:1050D0003B681B685A1C13465B001344072202FA04
:1050E00003F3DB4318403B689C683B681B685A1C11
:1050F00013465B00134404FA03F303434B617B68DC
:105100001B68B3F1A04F04D07B681B68244A93420C
:1051100001D1244B00E0244B7B663B681B68102BBD
:1051200005D17B6E9B6803F40003002B15D03B6810
:105130001B68112B05D17B6E9B6803F08073002BDD
:105140000BD03B681B68122B40F0AF807B6E9B68D6
:1051500003F48003002B40F0A8807B681B68B3F148
:10516000A04F02D10E4B3B6126E07B681B680C4AC6
:10517000934203D14FF0A0433B611DE07B681B6865
:105180000A4A934202D10A4B3B6115E07B681B68D7
:10519000074A93420ED1054B3B610DE000F0FF83BF
:1051A00000010050000300500007005000040050B0
:1051B0000005005000233B617B681B689B6803F07F
:1051C0000303012B08D17B681B681B6803F00103F4
:1051D000002B01D0012300E00023002B50D13B69BC
:1051E000002B10D03B699B6803F00303012B07D110
:1051F0003B691B6803F00103002B01D0012300E091
:105200000023002B3CD13B681B68102B1DD17B6811
:105210001B68B3F1A04F18D17B6E9B6843F400026A
:105220007B6E9A60264B1B68264AA2FB03239A0CCE
:1052300013469B0013445B00FB6002E0FB68013BEC
:10524000FB60FB68002BF9D12EE03B681B68112B3B
:105250000BD17B681B68B3F1A04F06D17B6E9B68B6
:1052600043F080727B6E9A601EE03B681B68122BD5
:105270001AD17B6E9B6843F480027B6E9A6013E0C8
:105280007B685B6C43F020027B685A64012387F8DB
:105290006F300AE07B685B6C43F020027B685A64E5
:1052A000012387F86F3000E000BF7B68002283F89D
:1052B000402097F86F3018467437BD4690BD00BF48
:1052C0000400002083DE1B4390B59DB000AF7860E2
:1052D0003960002387F86F300023BB600023BB6672
:1052E0007B681B68B3F1A04F13D07B681B68974A9B
:1052F00093420ED07B681B68954A934209D07B6825
:105300001B68944A934204D041F217719248FBF70C
:10531000D5FB3B689B68002B20D03B689B68012B2A
:105320001CD03B689B68022B18D03B689B68032B02
:1053300014D03B689B68042B10D03B689B68052BFE
:105340000CD03B689B68062B08D03B689B68072BFA
:1053500004D041F218718048FBF7B0FB3B68DB6872
:10536000002B08D03B68DB68012B04D041F2197197
:105370007948FBF7A3FB3B681B6A002B08D03B680E
:105380001B6A012B04D041F21A717348FBF796FB9C
:105390003B685B6A002B08D03B685B6A012B04D03A
:1053A00041F21B716C48FBF789FB3B68DB6A002B01
:1053B00010D03B68DB6A402B0CD03B68DB6A802B4B
:1053C00008D03B68DB6AC02B04D041F21C716248F4
:1053D000FBF774FB3B689B6A0C2B69D03B689B6AAC
:1053E000342B65D03B689B6A102B61D03B689B6A6D
:1053F000382B5DD03B689B6A182B59D03B689B6A61
:10540000564A934254D03B689B6A182B50D03B6855
:105410009B6A382B4CD03B689B6A0C2B48D03B686E
:105420009B6A042B44D03B689B6A002B40D03B68AE
:105430009B6A202B3CD03B689B6A082B38D03B688A
:105440009B6A2C2B34D03B689B6A302B30D03B6856
:105450009B6A142B2CD03B689B6A1C2B28D03B6882
:105460009B6A242B24D03B689B6A282B20D03B6866
:105470009B6A3C2B1CD03B689B6A342B18D03B6842
:105480009B6A382B14D03B689B6A41F20C02934212
:105490000ED03B689B6A41F21802934208D03B68E9
:1054A0009B6A012B04D041F21D712B48FBF706FBD0
:1054B0003B681B69002B14D03B681B69012B10D083
:1054C0003B681B69022B0CD03B681B69032B08D07F
:1054D0003B681B69042B04D041F21E711E48FBF788
:1054E000EDFA7B681B68DB6803F01803002B04D11E
:1054F0003B685B69B3F5805F32D37B681B68DB6810
:1055000003F01803082B04D13B685B69B3F5806F87
:1055100026D37B681B68DB6803F01803102B03D1CC
:105520003B685B69FF2B1BD97B681B68DB6803F05A
:105530001803182B03D13B685B693F2B10D941F24C
:105540001F710548FBF7BAFA0AE000BF00010050DE
:105550000004005000050050A09F02080800010050
:105560007B681B69002B2ED03B685B68012B10D039
:105570003B685B68022B0CD03B685B68032B08D050
:105580003B685B68042B04D041F223719048FBF721
:1055900095FA3B689B69002B03D03B689B69042B01
:1055A00004D941F224718A48FBF788FA3B68DB6929
:1055B000002B08D03B68DB69012B04D041F2257138
:1055C0008348FBF77BFA3B68DB68012B63D03B68C1
:1055D0001B68012B00F09C803B681B68022B00F0CD
:1055E00097803B681B68032B00F092803B681B6828
:1055F000042B00F08D803B681B68052B00F0888031
:105600003B681B68062B00F083803B681B68072BF8
:105610007ED03B681B68082B7AD03B681B68092B3F
:1056200076D03B681B680A2B72D03B681B680B2B3B
:105630006ED03B681B680C2B6AD03B681B680D2B37
:1056400066D03B681B680E2B62D03B681B680F2B33
:105650005ED03B681B68102B5AD03B681B68112B2F
:1056600056D03B681B68122B52D03B681B680F2B2F
:105670004ED03B681B68112B4AD03B681B68112B2E
:1056800046D03B681B68112B42D041F22D71504827
:10569000FBF714FA3CE03B681B68012B38D03B68F1
:1056A0001B68022B34D03B681B68032B30D03B684F
:1056B0001B68042B2CD03B681B68052B28D03B684B
:1056C0001B68062B24D03B681B68072B20D03B6847
:1056D0001B68082B1CD03B681B68092B18D03B6843
:1056E0001B680A2B14D03B681B680B2B10D03B683F
:1056F0001B680C2B0CD03B681B680D2B08D03B683B
:105700001B680E2B04D041F231713148FBF7D6F9FA
:105710007B6893F84030012B01D10223A3E37B681F
:10572000012283F840207B681B69002B03D03B6873
:105730009B69012B72D13B685B68012B64D13B688C
:105740009B6A012B4CD03B681B681A027B681B6864
:1057500020498B4204D07B681B681F498B422BD1A8
:105760003B689B6A082B25D03B689B6A142B1FD093
:105770003B689B6A1C2B19D03B689B6A17498B427C
:1057800012D03B689B6A41F20C018B420AD03B6805
:105790009B6A41F218018B4202D03B689B6A0FE082
:1057A0002C230DE014230BE00C4B09E0102307E041
:1057B0001C2305E0342303E03B689B6A23F48053F9
:1057C0001A433B68DB6A1343BA6E1343BB660DE0B2
:1057D000A09F0208000400500005005008000100CE
:1057E0003B681B681B02BA6E1343BB667B681A6872
:1057F0007B681B68D96C934B0B40B96E0B43D36429
:105800007B68BA6EDA6498E07B685B6C43F02002D8
:105810007B685A64012387F86F308EE07B681B6DCC
:10582000002B59D13B689A697B681A657B68002216
:10583000DA643B689B6A012B46D07B68DA6C3B6874
:105840009B69591E7B681B687F48834204D07B6834
:105850001B687E4883422BD13B689B6A082B25D06E
:105860003B689B6A142B1FD03B689B6A1C2B19D08A
:105870003B689B6A7648834212D03B689B6A41F240
:105880000C0083420AD03B689B6A41F218008342B5
:1058900002D03B689B6A0FE02C230DE014230BE041
:1058A0006B4B09E0102307E01C2305E0342303E0E1
:1058B0003B689B6A23F4805319433B68DB6A0B43C4
:1058C0001A437B68DA6407E07B68DA6C3B689B69A3
:1058D000013B1A437B68DA647B68D96C3B685A6881
:1058E00013465B0013445B0002331F2202FA03F3EA
:1058F000DB4319403B6818683B685A6813465B00F5
:1059000013445B00023300FA03F341EA03027B68AD
:10591000DA647B681B6D5A1E7B681A657B681B6D99
:10592000002B0AD17B681A687B681B68D96C454BD1
:105930000B407968C96C0B43D3647B681B689B6818
:1059400003F00803002B2DD13B681B6A002B10D1FC
:105950007B681B687A681268D26822F440113A6842
:10596000526A50053A68D269120502430A43DA6066
:1059700018E07B681B687A681268D26822F44011CC
:105980003A68526A52050A43DA603B68DB69012BC8
:1059900008D17B685B6C43F020027B685A6401236A
:1059A00087F86F307B681B689B6803F00C03002B43
:1059B00040F013813B689B6A012B0CD17B681B680C
:1059C0007A681268D26822F000713A68126A520648
:1059D0000A43DA6014E07B681B687A681268D26850
:1059E00022F00072DA603B681B6A012B08D17B68E9
:1059F0005B6C43F020027B685A64012387F86F30A8
:105A00003B681B68092B25D97B6819687B681B6874
:105A100098693B681A6813465B0013441E3B0722D3
:105A200002FA03F3DB4318403B689C683B681A6842
:105A300013465B0013441E3B04FA03F303438B61DC
:105A400022E000BF00200882000400500005005042
:105A5000080001007B6819687B681B6858693B680F
:105A60001A6813465B001344072202FA03F3DB4370
:105A700018403B689C683B681A6813465B001344F7
:105A800004FA03F303434B613B685A697B681B6864
:105A9000DB6803F01803DB085B0002FA03F37B66A4
:105AA0003B681B69013B032B4ED801A252F823F03F
:105AB000C15A0008E35A0008055B0008275B00088C
:105AC0007B681A687B681B68196EA14B0B403968AC
:105AD00009688806796E01430B4343F0004313665F
